{
  "contractName": "Purchase",
  "abi": [
    {
      "constant": true,
      "inputs": [],
      "name": "getSomething",
      "outputs": [
        {
          "name": "",
          "type": "address"
        }
      ],
      "payable": false,
      "stateMutability": "view",
      "type": "function"
    },
    {
      "constant": true,
      "inputs": [],
      "name": "seller",
      "outputs": [
        {
          "name": "",
          "type": "address"
        }
      ],
      "payable": false,
      "stateMutability": "view",
      "type": "function"
    },
    {
      "constant": true,
      "inputs": [],
      "name": "value",
      "outputs": [
        {
          "name": "",
          "type": "uint256"
        }
      ],
      "payable": false,
      "stateMutability": "view",
      "type": "function"
    },
    {
      "constant": false,
      "inputs": [],
      "name": "refund",
      "outputs": [],
      "payable": false,
      "stateMutability": "nonpayable",
      "type": "function"
    },
    {
      "constant": true,
      "inputs": [],
      "name": "buyer",
      "outputs": [
        {
          "name": "",
          "type": "address"
        }
      ],
      "payable": false,
      "stateMutability": "view",
      "type": "function"
    },
    {
      "constant": false,
      "inputs": [],
      "name": "confirmReceived",
      "outputs": [],
      "payable": false,
      "stateMutability": "nonpayable",
      "type": "function"
    },
    {
      "constant": true,
      "inputs": [],
      "name": "state",
      "outputs": [
        {
          "name": "",
          "type": "uint8"
        }
      ],
      "payable": false,
      "stateMutability": "view",
      "type": "function"
    },
    {
      "constant": false,
      "inputs": [],
      "name": "confirmPurchase",
      "outputs": [],
      "payable": true,
      "stateMutability": "payable",
      "type": "function"
    },
    {
      "constant": false,
      "inputs": [
        {
          "name": "fa",
          "type": "uint256"
        }
      ],
      "name": "purchase",
      "outputs": [],
      "payable": true,
      "stateMutability": "payable",
      "type": "function"
    }
  ],
  "bytecode": "0x6060604052341561000f57600080fd5b6106188061001e6000396000f300606060405260043610610099576000357c0100000000000000000000000000000000000000000000000000000000900463ffffffff16806301ec3b6c1461009e57806308551a53146100f35780633fa4f24514610148578063590e1ae3146101715780637150d8ae1461018657806373fac6f0146101db578063c19d93fb146101f0578063d696069714610227578063efef39a114610231575b600080fd5b34156100a957600080fd5b6100b1610249565b604051808273ffffffffffffffffffffffffffffffffffffffff1673ffffffffffffffffffffffffffffffffffffffff16815260200191505060405180910390f35b34156100fe57600080fd5b610106610273565b604051808273ffffffffffffffffffffffffffffffffffffffff1673ffffffffffffffffffffffffffffffffffffffff16815260200191505060405180910390f35b341561015357600080fd5b61015b610299565b6040518082815260200191505060405180910390f35b341561017c57600080fd5b61018461029f565b005b341561019157600080fd5b61019961039b565b604051808273ffffffffffffffffffffffffffffffffffffffff1673ffffffffffffffffffffffffffffffffffffffff16815260200191505060405180910390f35b34156101e657600080fd5b6101ee6103c1565b005b34156101fb57600080fd5b61020361045f565b6040518082600281111561021357fe5b60ff16815260200191505060405180910390f35b61022f610472565b005b610247600480803590602001909190505061057d565b005b6000600160009054906101000a900473ffffffffffffffffffffffffffffffffffffffff16905090565b600160009054906101000a900473ffffffffffffffffffffffffffffffffffffffff1681565b60005481565b600160009054906101000a900473ffffffffffffffffffffffffffffffffffffffff1673ffffffffffffffffffffffffffffffffffffffff163373ffffffffffffffffffffffffffffffffffffffff161415610399576000600281111561030257fe5b600260149054906101000a900460ff16600281111561031d57fe5b5050600260009054906101000a900473ffffffffffffffffffffffffffffffffffffffff1673ffffffffffffffffffffffffffffffffffffffff166108fc3073ffffffffffffffffffffffffffffffffffffffff16319081150290604051600060405180830381858888f19350505050151561039857600080fd5b5b565b600260009054906101000a900473ffffffffffffffffffffffffffffffffffffffff1681565b60028060146101000a81548160ff021916908360028111156103df57fe5b0217905550600160009054906101000a900473ffffffffffffffffffffffffffffffffffffffff1673ffffffffffffffffffffffffffffffffffffffff166108fc3073ffffffffffffffffffffffffffffffffffffffff16319081150290604051600060405180830381858888f19350505050151561045d57600080fd5b565b600260149054906101000a900460ff1681565b600260149054906101000a900460ff16600281111561048d57fe5b6001600281111561049a57fe5b1480156104cb5750600260149054906101000a900460ff1660028111156104bd57fe5b6002808111156104c957fe5b145b15610515573373ffffffffffffffffffffffffffffffffffffffff166108fc349081150290604051600060405180830381858888f19350505050151561051057600080fd5b61057b565b33600260006101000a81548173ffffffffffffffffffffffffffffffffffffffff021916908373ffffffffffffffffffffffffffffffffffffffff1602179055506001600260146101000a81548160ff0219169083600281111561057557fe5b02179055505b565b8060008190555033600160006101000a81548173ffffffffffffffffffffffffffffffffffffffff021916908373ffffffffffffffffffffffffffffffffffffffff1602179055506000600260146101000a81548160ff021916908360028111156105e457fe5b0217905550505600a165627a7a72305820029fd147192c99ccd46d8328753a08537c093976d8457e447046640c1d5ba29e0029",
  "source": "pragma solidity ^0.4.0;\n\ncontract Purchase {\n    uint public value;\n    address public seller;\n    address public buyer;\n    enum State { Created, Locked, Inactive }\n    State public state;\n\n    function purchase(uint fa) payable\n    {\n\tvalue=fa;\n\tseller=msg.sender;\n\tstate=State.Created;\n    }\n\n    function getSomething() constant returns (address)\n    {\n\treturn seller;\n    }\n\n    function confirmPurchase() payable public\n    {\n\tif(State.Locked == state && State.Inactive == state)\n\t{\n\t\tmsg.sender.transfer(msg.value);\n\t}\n\telse{\n\t\tbuyer = msg.sender;\n\t        state = State.Locked;\n\t}\n    } \n    \n    function confirmReceived() public\n    {\n\tstate = State.Inactive;\n        seller.transfer(this.balance);\n    }\n\n    function refund() public\n    {\n\tif(msg.sender == seller)\n\t{\n\t\tstate==State.Created;\n\t\tbuyer.transfer(this.balance);\n\t}\t\n    }\n}\n",
  "sourcePath": "/home/crow/Documents/truffle-project/contracts/Purchase.sol",
  "compiler": {
    "name": "solc",
    "version": "0.4.18+commit.9cf6e910.Emscripten.clang"
  },
  "schemaVersion": "1.0.1",
  "updatedAt": "2018-03-18T00:01:38.603Z"
}