{
  "contractName": "Random",
  "abi": [
    {
      "constant": false,
      "inputs": [
        {
          "name": "fa",
          "type": "uint256"
        }
      ],
      "name": "setNumber",
      "outputs": [],
      "payable": true,
      "stateMutability": "payable",
      "type": "function"
    },
    {
      "constant": true,
      "inputs": [],
      "name": "getBlockgaslimit",
      "outputs": [
        {
          "name": "",
          "type": "uint256"
        }
      ],
      "payable": false,
      "stateMutability": "view",
      "type": "function"
    },
    {
      "constant": true,
      "inputs": [],
      "name": "getBlocknumber",
      "outputs": [
        {
          "name": "",
          "type": "uint256"
        }
      ],
      "payable": false,
      "stateMutability": "view",
      "type": "function"
    },
    {
      "constant": true,
      "inputs": [],
      "name": "getBlockdifficulty",
      "outputs": [
        {
          "name": "",
          "type": "uint256"
        }
      ],
      "payable": false,
      "stateMutability": "view",
      "type": "function"
    },
    {
      "constant": true,
      "inputs": [],
      "name": "getNumber",
      "outputs": [
        {
          "name": "",
          "type": "uint256"
        }
      ],
      "payable": false,
      "stateMutability": "view",
      "type": "function"
    },
    {
      "constant": true,
      "inputs": [],
      "name": "getTxgasprice",
      "outputs": [
        {
          "name": "",
          "type": "uint256"
        }
      ],
      "payable": false,
      "stateMutability": "view",
      "type": "function"
    },
    {
      "constant": true,
      "inputs": [],
      "name": "getBlocktimestamp",
      "outputs": [
        {
          "name": "",
          "type": "uint256"
        }
      ],
      "payable": false,
      "stateMutability": "view",
      "type": "function"
    }
  ],
  "bytecode": "0x6060604052341561000f57600080fd5b6102538061001e6000396000f300606060405260043610610083576000357c0100000000000000000000000000000000000000000000000000000000900463ffffffff1680633fb5c1cb146100885780638a05fe02146100a0578063c8d2db78146100c9578063d1bd8ef4146100f2578063f2c9ecd81461011b578063f4d4d47214610144578063f8c685481461016d575b600080fd5b61009e6004808035906020019091905050610196565b005b34156100ab57600080fd5b6100b36101f6565b6040518082815260200191505060405180910390f35b34156100d457600080fd5b6100dc6101fe565b6040518082815260200191505060405180910390f35b34156100fd57600080fd5b610105610206565b6040518082815260200191505060405180910390f35b341561012657600080fd5b61012e61020e565b6040518082815260200191505060405180910390f35b341561014f57600080fd5b610157610217565b6040518082815260200191505060405180910390f35b341561017857600080fd5b61018061021f565b6040518082815260200191505060405180910390f35b600a81600a3a8115156101a557fe5b06600a428115156101b257fe5b06600a458115156101bf57fe5b06600a448115156101cc57fe5b06600a438115156101d957fe5b066000540101010101018115156101ec57fe5b0660008190555050565b600045905090565b600043905090565b600044905090565b60008054905090565b60003a905090565b6000429050905600a165627a7a723058203cca42f66c533b8f4cd98833a6e5aeb7b95119b3b98790c8151644f729857f210029",
  "source": "pragma solidity ^0.4.0;\r\n\r\ncontract Random\r\n{\r\n    uint flag;\r\n    \r\n    function getNumber() constant returns (uint)\r\n    {\r\n\t\treturn flag;\r\n    }\r\n    \r\n    function getBlocknumber() constant returns (uint)\r\n    {\r\n        return block.number;\r\n    }\r\n    \r\n    function getBlockdifficulty() constant returns (uint)\r\n    {\r\n        return block.difficulty;\r\n    }\r\n    \r\n    function getBlockgaslimit() constant returns (uint)\r\n    {\r\n        return block.gaslimit;\r\n    }\r\n    \r\n    function getBlocktimestamp() constant returns (uint)\r\n    {\r\n        return block.timestamp;\r\n    }\r\n    \r\n    function getTxgasprice() constant returns (uint)\r\n    {\r\n        return tx.gasprice;\r\n    }\r\n    \r\n    function setNumber(uint fa) payable\r\n    {\r\n\tflag=(flag+block.number%10+block.difficulty%10+block.gaslimit%10+block.timestamp%10+tx.gasprice%10+fa)%10;\r\n    }\r\n}\r\n\r\n",
  "sourcePath": "/home/crow/Documents/truffle-project/contracts/Random.sol",
  "compiler": {
    "name": "solc",
    "version": "0.4.18+commit.9cf6e910.Emscripten.clang"
  },
  "schemaVersion": "1.0.1",
  "updatedAt": "2018-03-18T00:01:38.597Z"
}